{
  "_format": "hh-sol-artifact-1",
  "contractName": "Donate2Syria",
  "sourceName": "contracts/donations.sol",
  "abi": [
    {
      "inputs": [],
      "stateMutability": "nonpayable",
      "type": "constructor"
    },
    {
      "inputs": [
        {
          "internalType": "string",
          "name": "_name",
          "type": "string"
        },
        {
          "internalType": "string",
          "name": "_message",
          "type": "string"
        }
      ],
      "name": "donate",
      "outputs": [],
      "stateMutability": "payable",
      "type": "function"
    },
    {
      "inputs": [],
      "name": "getDonorDetails",
      "outputs": [
        {
          "components": [
            {
              "internalType": "address",
              "name": "from",
              "type": "address"
            },
            {
              "internalType": "string",
              "name": "name",
              "type": "string"
            },
            {
              "internalType": "string",
              "name": "message",
              "type": "string"
            },
            {
              "internalType": "uint256",
              "name": "timestamp",
              "type": "uint256"
            }
          ],
          "internalType": "struct Donate2Syria.Donor[]",
          "name": "",
          "type": "tuple[]"
        }
      ],
      "stateMutability": "view",
      "type": "function"
    },
    {
      "inputs": [],
      "name": "owner",
      "outputs": [
        {
          "internalType": "address payable",
          "name": "",
          "type": "address"
        }
      ],
      "stateMutability": "view",
      "type": "function"
    }
  ],
  "bytecode": "0x608060405234801561001057600080fd5b5033600160006101000a81548173ffffffffffffffffffffffffffffffffffffffff021916908373ffffffffffffffffffffffffffffffffffffffff160217905550610c32806100616000396000f3fe6080604052600436106100345760003560e01c80631653441c146100395780638da5cb5b14610055578063aac0b47f14610080575b600080fd5b610053600480360381019061004e91906105a0565b6100ab565b005b34801561006157600080fd5b5061006a61023d565b6040516100779190610659565b60405180910390f35b34801561008c57600080fd5b50610095610263565b6040516100a29190610859565b60405180910390f35b60003410156100ef576040517f08c379a00000000000000000000000000000000000000000000000000000000081526004016100e6906108fe565b60405180910390fd5b600160009054906101000a900473ffffffffffffffffffffffffffffffffffffffff1673ffffffffffffffffffffffffffffffffffffffff166108fc349081150290604051600060405180830381858888f19350505050158015610157573d6000803e3d6000fd5b50600060405180608001604052803373ffffffffffffffffffffffffffffffffffffffff16815260200184815260200183815260200142815250908060018154018082558091505060019003906000526020600020906004020160009091909190915060008201518160000160006101000a81548173ffffffffffffffffffffffffffffffffffffffff021916908373ffffffffffffffffffffffffffffffffffffffff16021790555060208201518160010190816102169190610b2a565b50604082015181600201908161022c9190610b2a565b506060820151816003015550505050565b600160009054906101000a900473ffffffffffffffffffffffffffffffffffffffff1681565b60606000805480602002602001604051908101604052809291908181526020016000905b8282101561043d57838290600052602060002090600402016040518060800160405290816000820160009054906101000a900473ffffffffffffffffffffffffffffffffffffffff1673ffffffffffffffffffffffffffffffffffffffff1673ffffffffffffffffffffffffffffffffffffffff1681526020016001820180546103109061094d565b80601f016020809104026020016040519081016040528092919081815260200182805461033c9061094d565b80156103895780601f1061035e57610100808354040283529160200191610389565b820191906000526020600020905b81548152906001019060200180831161036c57829003601f168201915b505050505081526020016002820180546103a29061094d565b80601f01602080910402602001604051908101604052809291908181526020018280546103ce9061094d565b801561041b5780601f106103f05761010080835404028352916020019161041b565b820191906000526020600020905b8154815290600101906020018083116103fe57829003601f168201915b5050505050815260200160038201548152505081526020019060010190610287565b50505050905090565b6000604051905090565b600080fd5b600080fd5b600080fd5b600080fd5b6000601f19601f8301169050919050565b7f4e487b7100000000000000000000000000000000000000000000000000000000600052604160045260246000fd5b6104ad82610464565b810181811067ffffffffffffffff821117156104cc576104cb610475565b5b80604052505050565b60006104df610446565b90506104eb82826104a4565b919050565b600067ffffffffffffffff82111561050b5761050a610475565b5b61051482610464565b9050602081019050919050565b82818337600083830152505050565b600061054361053e846104f0565b6104d5565b90508281526020810184848401111561055f5761055e61045f565b5b61056a848285610521565b509392505050565b600082601f8301126105875761058661045a565b5b8135610597848260208601610530565b91505092915050565b600080604083850312156105b7576105b6610450565b5b600083013567ffffffffffffffff8111156105d5576105d4610455565b5b6105e185828601610572565b925050602083013567ffffffffffffffff81111561060257610601610455565b5b61060e85828601610572565b9150509250929050565b600073ffffffffffffffffffffffffffffffffffffffff82169050919050565b600061064382610618565b9050919050565b61065381610638565b82525050565b600060208201905061066e600083018461064a565b92915050565b600081519050919050565b600082825260208201905092915050565b6000819050602082019050919050565b60006106ab82610618565b9050919050565b6106bb816106a0565b82525050565b600081519050919050565b600082825260208201905092915050565b60005b838110156106fb5780820151818401526020810190506106e0565b60008484015250505050565b6000610712826106c1565b61071c81856106cc565b935061072c8185602086016106dd565b61073581610464565b840191505092915050565b6000819050919050565b61075381610740565b82525050565b600060808301600083015161077160008601826106b2565b50602083015184820360208601526107898282610707565b915050604083015184820360408601526107a38282610707565b91505060608301516107b8606086018261074a565b508091505092915050565b60006107cf8383610759565b905092915050565b6000602082019050919050565b60006107ef82610674565b6107f9818561067f565b93508360208202850161080b85610690565b8060005b85811015610847578484038952815161082885826107c3565b9450610833836107d7565b925060208a0199505060018101905061080f565b50829750879550505050505092915050565b6000602082019050818103600083015261087381846107e4565b905092915050565b600082825260208201905092915050565b7f506c6561736520436865636b20796f752077616c6c657420666f72204554482060008201527f62616c616e636500000000000000000000000000000000000000000000000000602082015250565b60006108e860278361087b565b91506108f38261088c565b604082019050919050565b60006020820190508181036000830152610917816108db565b9050919050565b7f4e487b7100000000000000000000000000000000000000000000000000000000600052602260045260246000fd5b6000600282049050600182168061096557607f821691505b6020821081036109785761097761091e565b5b50919050565b60008190508160005260206000209050919050565b60006020601f8301049050919050565b600082821b905092915050565b6000600883026109e07fffffffffffffffffffffffffffffffffffffffffffffffffffffffffffffffff826109a3565b6109ea86836109a3565b95508019841693508086168417925050509392505050565b6000819050919050565b6000610a27610a22610a1d84610740565b610a02565b610740565b9050919050565b6000819050919050565b610a4183610a0c565b610a55610a4d82610a2e565b8484546109b0565b825550505050565b600090565b610a6a610a5d565b610a75818484610a38565b505050565b5b81811015610a9957610a8e600082610a62565b600181019050610a7b565b5050565b601f821115610ade57610aaf8161097e565b610ab884610993565b81016020851015610ac7578190505b610adb610ad385610993565b830182610a7a565b50505b505050565b600082821c905092915050565b6000610b0160001984600802610ae3565b1980831691505092915050565b6000610b1a8383610af0565b9150826002028217905092915050565b610b33826106c1565b67ffffffffffffffff811115610b4c57610b4b610475565b5b610b56825461094d565b610b61828285610a9d565b600060209050601f831160018114610b945760008415610b82578287015190505b610b8c8582610b0e565b865550610bf4565b601f198416610ba28661097e565b60005b82811015610bca57848901518255600182019150602085019450602081019050610ba5565b86831015610be75784890151610be3601f891682610af0565b8355505b6001600288020188555050505b50505050505056fea26469706673582212208bb4d137c76b066c1bd60a470b0605de174e0974efc33c34389e8490efc9ffd964736f6c63430008110033",
  "linkReferences": {},
  "deployedLinkReferences": {}
}